{
  "contractName": "Kake2",
  "abi": [
    {
      "constant": false,
      "inputs": [
        {
          "name": "operator",
          "type": "address"
        },
        {
          "name": "from",
          "type": "address"
        },
        {
          "name": "tokenId",
          "type": "uint256"
        },
        {
          "name": "data",
          "type": "bytes"
        }
      ],
      "name": "onERC721Received",
      "outputs": [
        {
          "name": "",
          "type": "bytes4"
        }
      ],
      "payable": false,
      "stateMutability": "nonpayable",
      "type": "function",
      "signature": "0x150b7a02"
    },
    {
      "constant": false,
      "inputs": [],
      "name": "Lock",
      "outputs": [],
      "payable": false,
      "stateMutability": "nonpayable",
      "type": "function",
      "signature": "0x46620e39"
    },
    {
      "constant": false,
      "inputs": [
        {
          "name": "tokenContract",
          "type": "address"
        },
        {
          "name": "id",
          "type": "uint256"
        }
      ],
      "name": "AddERC721Token",
      "outputs": [],
      "payable": false,
      "stateMutability": "nonpayable",
      "type": "function",
      "signature": "0x48b96a27"
    },
    {
      "constant": false,
      "inputs": [],
      "name": "Refund",
      "outputs": [],
      "payable": false,
      "stateMutability": "nonpayable",
      "type": "function",
      "signature": "0x5d268629"
    },
    {
      "constant": false,
      "inputs": [
        {
          "name": "sourceIndex",
          "type": "uint256"
        },
        {
          "name": "targetIndex",
          "type": "uint256"
        },
        {
          "name": "erc20Addresses",
          "type": "address[]"
        },
        {
          "name": "erc20Values",
          "type": "uint256[]"
        },
        {
          "name": "erc721Addresses",
          "type": "address[]"
        },
        {
          "name": "erc721Ids",
          "type": "uint256[]"
        }
      ],
      "name": "SplitSegment",
      "outputs": [],
      "payable": true,
      "stateMutability": "payable",
      "type": "function",
      "signature": "0x69d67e25"
    },
    {
      "constant": false,
      "inputs": [
        {
          "name": "tokenContract",
          "type": "address"
        },
        {
          "name": "value",
          "type": "uint256"
        }
      ],
      "name": "AddERC20Token",
      "outputs": [],
      "payable": true,
      "stateMutability": "payable",
      "type": "function",
      "signature": "0xe1498062"
    },
    {
      "constant": false,
      "inputs": [
        {
          "name": "index",
          "type": "uint256"
        }
      ],
      "name": "ChooseSegment",
      "outputs": [],
      "payable": false,
      "stateMutability": "nonpayable",
      "type": "function",
      "signature": "0xf103cf02"
    },
    {
      "inputs": [
        {
          "name": "user1",
          "type": "address"
        },
        {
          "name": "user2",
          "type": "address"
        }
      ],
      "payable": false,
      "stateMutability": "nonpayable",
      "type": "constructor",
      "signature": "constructor"
    }
  ],
  "bytecode": "0x608060405260008060006101000a81548160ff021916908360038111156200002357fe5b02179055503480156200003557600080fd5b506040516040806200210d833981018060405260408110156200005757600080fd5b8101908080519060200190929190805190602001909291905050506200008c82620000ae640100000000026401000000009004565b620000a681620000ae640100000000026401000000009004565b505062000117565b60018190806001815401808255809150509060018203906000526020600020016000909192909190916101000a81548173ffffffffffffffffffffffffffffffffffffffff021916908373ffffffffffffffffffffffffffffffffffffffff1602179055505050565b611fe680620001276000396000f3fe608060405260043610610083576000357c0100000000000000000000000000000000000000000000000000000000900463ffffffff168063150b7a021461008857806346620e39146101ec57806348b96a27146102035780635d2686291461025e57806369d67e2514610275578063e1498062146104fd578063f103cf021461054b575b600080fd5b34801561009457600080fd5b50610198600480360360808110156100ab57600080fd5b81019080803573ffffffffffffffffffffffffffffffffffffffff169060200190929190803573ffffffffffffffffffffffffffffffffffffffff169060200190929190803590602001909291908035906020019064010000000081111561011257600080fd5b82018360208201111561012457600080fd5b8035906020019184600183028401116401000000008311171561014657600080fd5b91908080601f016020809104026020016040519081016040528093929190818152602001838380828437600081840152601f19601f820116905080830192505050505050509192919290505050610586565b60405180827bffffffffffffffffffffffffffffffffffffffffffffffffffffffff19167bffffffffffffffffffffffffffffffffffffffffffffffffffffffff1916815260200191505060405180910390f35b3480156101f857600080fd5b50610201610796565b005b34801561020f57600080fd5b5061025c6004803603604081101561022657600080fd5b81019080803573ffffffffffffffffffffffffffffffffffffffff169060200190929190803590602001909291905050506109be565b005b34801561026a57600080fd5b50610273610b78565b005b6104fb600480360360c081101561028b57600080fd5b810190808035906020019092919080359060200190929190803590602001906401000000008111156102bc57600080fd5b8201836020820111156102ce57600080fd5b803590602001918460208302840111640100000000831117156102f057600080fd5b919080806020026020016040519081016040528093929190818152602001838360200280828437600081840152601f19601f8201169050808301925050505050505091929192908035906020019064010000000081111561035057600080fd5b82018360208201111561036257600080fd5b8035906020019184602083028401116401000000008311171561038457600080fd5b919080806020026020016040519081016040528093929190818152602001838360200280828437600081840152601f19601f820116905080830192505050505050509192919290803590602001906401000000008111156103e457600080fd5b8201836020820111156103f657600080fd5b8035906020019184602083028401116401000000008311171561041857600080fd5b919080806020026020016040519081016040528093929190818152602001838360200280828437600081840152601f19601f8201169050808301925050505050505091929192908035906020019064010000000081111561047857600080fd5b82018360208201111561048a57600080fd5b803590602001918460208302840111640100000000831117156104ac57600080fd5b919080806020026020016040519081016040528093929190818152602001838360200280828437600081840152601f19601f820116905080830192505050505050509192919290505050610e7c565b005b6105496004803603604081101561051357600080fd5b81019080803573ffffffffffffffffffffffffffffffffffffffff169060200190929190803590602001909291905050506112f2565b005b34801561055757600080fd5b506105846004803603602081101561056e57600080fd5b8101908080359060200190929190505050611643565b005b6000610590611e35565b6080604051908101604052808673ffffffffffffffffffffffffffffffffffffffff1681526020018773ffffffffffffffffffffffffffffffffffffffff1681526020018581526020018481525090506005819080600181540180825580915050906001820390600052602060002090600402016000909192909190915060008201518160000160006101000a81548173ffffffffffffffffffffffffffffffffffffffff021916908373ffffffffffffffffffffffffffffffffffffffff16021790555060208201518160010160006101000a81548173ffffffffffffffffffffffffffffffffffffffff021916908373ffffffffffffffffffffffffffffffffffffffff1602179055506040820151816002015560608201518160030190805190602001906106c2929190611e8a565b50505050600660008773ffffffffffffffffffffffffffffffffffffffff1673ffffffffffffffffffffffffffffffffffffffff16815260200190815260200160002084908060018154018082558091505090600182039060005260206000200160009091929091909150555060405180807f6f6e455243373231526563656976656428616464726573732c6164647265737381526020017f2c75696e743235362c6279746573290000000000000000000000000000000000815250602f0190506040518091039020915050949350505050565b61079f33611778565b15156107aa57600080fd5b6001600260003373ffffffffffffffffffffffffffffffffffffffff1673ffffffffffffffffffffffffffffffffffffffff16815260200190815260200160002060000160006101000a81548160ff02191690831515021790555061080d611820565b156109bc5760006007600080815260200190815260200160002090506000600380549050905060008090505b8181101561098d57610849611f0a565b60038281548110151561085857fe5b9060005260206000209060030201606060405190810160405290816000820160009054906101000a900473ffffffffffffffffffffffffffffffffffffffff1673ffffffffffffffffffffffffffffffffffffffff1673ffffffffffffffffffffffffffffffffffffffff1681526020016001820160009054906101000a900473ffffffffffffffffffffffffffffffffffffffff1673ffffffffffffffffffffffffffffffffffffffff1673ffffffffffffffffffffffffffffffffffffffff16815260200160028201548152505090508060400151846000016000836020015173ffffffffffffffffffffffffffffffffffffffff1673ffffffffffffffffffffffffffffffffffffffff1681526020019081526020016000206000828254019250508190555050806001019050610839565b50610996611966565b60016000806101000a81548160ff021916908360038111156109b457fe5b021790555050505b565b600860009054906101000a900460ff161580156109e057506109df33611778565b5b8015610a395750600260003373ffffffffffffffffffffffffffffffffffffffff1673ffffffffffffffffffffffffffffffffffffffff16815260200190815260200160002060000160009054906101000a900460ff16155b1515610a4457600080fd5b3073ffffffffffffffffffffffffffffffffffffffff168273ffffffffffffffffffffffffffffffffffffffff1614151515610a7f57600080fd5b60008290508073ffffffffffffffffffffffffffffffffffffffff166342842e0e3330856040518463ffffffff167c0100000000000000000000000000000000000000000000000000000000028152600401808473ffffffffffffffffffffffffffffffffffffffff1673ffffffffffffffffffffffffffffffffffffffff1681526020018373ffffffffffffffffffffffffffffffffffffffff1673ffffffffffffffffffffffffffffffffffffffff1681526020018281526020019350505050600060405180830381600087803b158015610b5b57600080fd5b505af1158015610b6f573d6000803e3d6000fd5b50505050505050565b600860009054906101000a900460ff16158015610b9a5750610b9933611778565b5b1515610ba557600080fd5b6000600380549050905060008090505b81811015610caf57610ca4600382815481101515610bcf57fe5b9060005260206000209060030201606060405190810160405290816000820160009054906101000a900473ffffffffffffffffffffffffffffffffffffffff1673ffffffffffffffffffffffffffffffffffffffff1673ffffffffffffffffffffffffffffffffffffffff1681526020016001820160009054906101000a900473ffffffffffffffffffffffffffffffffffffffff1673ffffffffffffffffffffffffffffffffffffffff1673ffffffffffffffffffffffffffffffffffffffff168152602001600282015481525050611a6e565b806001019050610bb5565b506000600580549050905060008090505b81811015610e5c57610e51600582815481101515610cda57fe5b9060005260206000209060040201608060405190810160405290816000820160009054906101000a900473ffffffffffffffffffffffffffffffffffffffff1673ffffffffffffffffffffffffffffffffffffffff1673ffffffffffffffffffffffffffffffffffffffff1681526020016001820160009054906101000a900473ffffffffffffffffffffffffffffffffffffffff1673ffffffffffffffffffffffffffffffffffffffff1673ffffffffffffffffffffffffffffffffffffffff16815260200160028201548152602001600382018054600181600116156101000203166002900480601f016020809104026020016040519081016040528092919081815260200182805460018160011615610100020316600290048015610e435780601f10610e1857610100808354040283529160200191610e43565b820191906000526020600020905b815481529060010190602001808311610e2657829003601f168201915b505050505081525050611ba0565b806001019050610cc0565b506001600860006101000a81548160ff0219169083151502179055505050565b610e8533611778565b8015610e955750610e94611820565b5b1515610ea057600080fd5b600084519050835181141515610eb557600080fd5b600083519050825181141515610eca57600080fd5b6000600260003373ffffffffffffffffffffffffffffffffffffffff1673ffffffffffffffffffffffffffffffffffffffff168152602001908152602001600020905060008160010160008b815260200190815260200160002054111515610f3157600080fd5b80600201600089815260200190815260200160002060009054906101000a900460ff161515610f5f57600080fd5b8060010160008a8152602001908152602001600020600081548092919060019003919050555060008160020160008a815260200190815260200160002060006101000a81548160ff0219169083151502179055506000600760008b815260200190815260200160002090506000600760008b8152602001908152602001600020905060008090505b858110156111225760008a82815181101515610fff57fe5b90602001906020020151905060008a8381518110151561101b57fe5b906020019060200201519050808560000160008473ffffffffffffffffffffffffffffffffffffffff1673ffffffffffffffffffffffffffffffffffffffff168152602001908152602001600020541015151561107757600080fd5b808560000160008473ffffffffffffffffffffffffffffffffffffffff1673ffffffffffffffffffffffffffffffffffffffff16815260200190815260200160002060008282540392505081905550808460000160008473ffffffffffffffffffffffffffffffffffffffff1673ffffffffffffffffffffffffffffffffffffffff168152602001908152602001600020600082825401925050819055505050806001019050610fe7565b5060008090505b848110156112dc576000888281518110151561114157fe5b9060200190602002015190506000888381518110151561115d57fe5b90602001906020020151905060008560010160008473ffffffffffffffffffffffffffffffffffffffff1673ffffffffffffffffffffffffffffffffffffffff1681526020019081526020016000209050600081805490509050600080905060008090505b828110156112bf5783818154811015156111d857fe5b90600052602060002001548514156112b4576112438480548060200260200160405190810160405280929190818152602001828054801561123857602002820191906000526020600020905b815481526020019060010190808311611224575b505050505082611ca4565b508760010160008773ffffffffffffffffffffffffffffffffffffffff1673ffffffffffffffffffffffffffffffffffffffff168152602001908152602001600020859080600181540180825580915050906001820390600052602060002001600090919290919091505550600191505b8060010190506111c2565b508015156112cc57600080fd5b5050505050806001019050611129565b506112e5611d1a565b5050505050505050505050565b600860009054906101000a900460ff16158015611314575061131333611778565b5b801561136d5750600260003373ffffffffffffffffffffffffffffffffffffffff1673ffffffffffffffffffffffffffffffffffffffff16815260200190815260200160002060000160009054906101000a900460ff16155b151561137857600080fd5b3073ffffffffffffffffffffffffffffffffffffffff168273ffffffffffffffffffffffffffffffffffffffff16141515156113b357600080fd5b60008290508073ffffffffffffffffffffffffffffffffffffffff166323b872dd3330856040518463ffffffff167c0100000000000000000000000000000000000000000000000000000000028152600401808473ffffffffffffffffffffffffffffffffffffffff1673ffffffffffffffffffffffffffffffffffffffff1681526020018373ffffffffffffffffffffffffffffffffffffffff1673ffffffffffffffffffffffffffffffffffffffff1681526020018281526020019350505050602060405180830381600087803b15801561148f57600080fd5b505af11580156114a3573d6000803e3d6000fd5b505050506040513d60208110156114b957600080fd5b810190808051906020019092919050505015156114d557600080fd5b6114dd611f0a565b6060604051908101604052803373ffffffffffffffffffffffffffffffffffffffff1681526020018573ffffffffffffffffffffffffffffffffffffffff1681526020018481525090506003819080600181540180825580915050906001820390600052602060002090600302016000909192909190915060008201518160000160006101000a81548173ffffffffffffffffffffffffffffffffffffffff021916908373ffffffffffffffffffffffffffffffffffffffff16021790555060208201518160010160006101000a81548173ffffffffffffffffffffffffffffffffffffffff021916908373ffffffffffffffffffffffffffffffffffffffff1602179055506040820151816002015550505082600460008673ffffffffffffffffffffffffffffffffffffffff1673ffffffffffffffffffffffffffffffffffffffff1681526020019081526020016000206000828254019250508190555050505050565b61164c33611778565b801561165c575061165b611820565b5b151561166757600080fd5b60008090506000600260003373ffffffffffffffffffffffffffffffffffffffff1673ffffffffffffffffffffffffffffffffffffffff168152602001908152602001600020905060008160030180549050905060008090505b818110156117005782600301818154811015156116da57fe5b90600052602060002001548514156116f55760019350611700565b8060010190506116c1565b5082151561170d57600080fd5b81600301600061171d9190611f58565b336007600086815260200190815260200160002060020160006101000a81548173ffffffffffffffffffffffffffffffffffffffff021916908373ffffffffffffffffffffffffffffffffffffffff16021790555050505050565b600080600180549050905060008090505b81811015611814576001818154811015156117a057fe5b9060005260206000200160009054906101000a900473ffffffffffffffffffffffffffffffffffffffff1673ffffffffffffffffffffffffffffffffffffffff168473ffffffffffffffffffffffffffffffffffffffff1614156118095760019250505061181b565b806001019050611789565b5060009150505b919050565b600080600180549050905060008090505b8181101561195c57611841611f79565b6002600060018481548110151561185457fe5b9060005260206000200160009054906101000a900473ffffffffffffffffffffffffffffffffffffffff1673ffffffffffffffffffffffffffffffffffffffff1673ffffffffffffffffffffffffffffffffffffffff1681526020019081526020016000206040805190810160405290816000820160009054906101000a900460ff161515151581526020016003820180548060200260200160405190810160405280929190818152602001828054801561192e57602002820191906000526020600020905b81548152602001906001019080831161191a575b5050505050815250509050806000015115156119505760009350505050611963565b50806001019050611831565b5060019150505b90565b60006001600081548110151561197857fe5b9060005260206000200160009054906101000a900473ffffffffffffffffffffffffffffffffffffffff1690506001600260008373ffffffffffffffffffffffffffffffffffffffff1673ffffffffffffffffffffffffffffffffffffffff1681526020019081526020016000206001016000808152602001908152602001600020819055506001600260008373ffffffffffffffffffffffffffffffffffffffff1673ffffffffffffffffffffffffffffffffffffffff16815260200190815260200160002060020160006001815260200190815260200160002060006101000a81548160ff02191690831515021790555050565b6000816020015190508073ffffffffffffffffffffffffffffffffffffffff166323b872dd30846000015185604001516040518463ffffffff167c0100000000000000000000000000000000000000000000000000000000028152600401808473ffffffffffffffffffffffffffffffffffffffff1673ffffffffffffffffffffffffffffffffffffffff1681526020018373ffffffffffffffffffffffffffffffffffffffff1673ffffffffffffffffffffffffffffffffffffffff1681526020018281526020019350505050602060405180830381600087803b158015611b5657600080fd5b505af1158015611b6a573d6000803e3d6000fd5b505050506040513d6020811015611b8057600080fd5b81019080805190602001909291905050501515611b9c57600080fd5b5050565b6000816020015190508073ffffffffffffffffffffffffffffffffffffffff166342842e0e30846000015185604001516040518463ffffffff167c0100000000000000000000000000000000000000000000000000000000028152600401808473ffffffffffffffffffffffffffffffffffffffff1673ffffffffffffffffffffffffffffffffffffffff1681526020018373ffffffffffffffffffffffffffffffffffffffff1673ffffffffffffffffffffffffffffffffffffffff1681526020018281526020019350505050600060405180830381600087803b158015611c8857600080fd5b505af1158015611c9c573d6000803e3d6000fd5b505050505050565b6060825182101515611cb857829050611d14565b826001845103815181101515611cca57fe5b906020019060200201518383815181101515611ce257fe5b9060200190602002018181525050826001845103815181101515611d0257fe5b90602001906020020160008152508290505b92915050565b6000600180815481101515611d2b57fe5b9060005260206000200160009054906101000a900473ffffffffffffffffffffffffffffffffffffffff169050600260008273ffffffffffffffffffffffffffffffffffffffff1673ffffffffffffffffffffffffffffffffffffffff16815260200190815260200160002060030160009080600181540180825580915050906001820390600052602060002001600090919290919091505550600260008273ffffffffffffffffffffffffffffffffffffffff1673ffffffffffffffffffffffffffffffffffffffff1681526020019081526020016000206003016001908060018154018082558091505090600182039060005260206000200160009091929091909150555050565b608060405190810160405280600073ffffffffffffffffffffffffffffffffffffffff168152602001600073ffffffffffffffffffffffffffffffffffffffff16815260200160008152602001606081525090565b828054600181600116156101000203166002900490600052602060002090601f016020900481019282601f10611ecb57805160ff1916838001178555611ef9565b82800160010185558215611ef9579182015b82811115611ef8578251825591602001919060010190611edd565b5b509050611f069190611f95565b5090565b606060405190810160405280600073ffffffffffffffffffffffffffffffffffffffff168152602001600073ffffffffffffffffffffffffffffffffffffffff168152602001600081525090565b5080546000825590600052602060002090810190611f769190611f95565b50565b6040805190810160405280600015158152602001606081525090565b611fb791905b80821115611fb3576000816000905550600101611f9b565b5090565b9056fea165627a7a72305820cdbdc17a2db44262ea1eb9862f10890612f7c6a176b0ea089829b538f601eae80029",
  "source": "pragma solidity ^0.5.0;\n\nimport \"./Kake.sol\";\n\n/********************************************************************************************\n * Kake2 is a smart contract that implements the simplest case. The first user is given\n * permission to split the payload into two segments. The second is then able to choose who\n * receives each segment.\n *******************************************************************************************/\ncontract Kake2 is Kake \n{\n  constructor(address user1, address user2) public \n  {\n    RegisterUser(user1);\n    RegisterUser(user2);\n  }\n\n  function onBalanceFinalized() internal\n  {\n    address firstUser = _users[0];\n    _userState[firstUser].SplitPermissions[0] = 1; // The first user can split the initial balance into 2 pieces\n    _userState[firstUser].CreatePermissions[1] = true; // And has permission to put the piece into the index 1\n  }\n\n  function tick() internal\n  {\n    address secondUser = _users[1];\n    _userState[secondUser].PickPermissions.push(0);  // We now give the second user permission to pick the segment\n    _userState[secondUser].PickPermissions.push(1);  // at index 0 or 1\n  }\n\n  function getUserCount() internal pure returns (uint)\n  {\n    return 2;\n  }\n}\n",
  "sourcePath": "C:/Users/Sean/Documents/Projects/kake/contracts/Kake2.sol",
  "compiler": {
    "name": "solc",
    "version": "0.5.0+commit.1d4f565a.Emscripten.clang"
  },
  "schemaVersion": "3.0.1",
  "updatedAt": "2019-02-07T13:40:12.231Z",
  "devdoc": {
    "methods": {}
  },
  "userdoc": {
    "methods": {},
    "notice": "****************************************************************************************** Kake2 is a smart contract that implements the simplest case. The first user is given permission to split the payload into two segments. The second is then able to choose who receives each segment.******************************************************************************************"
  }
}